:100000000C944A000C94F0040C9423050C946700A3
:100010000C9467000C9467000C9467000C946700C4
:100020000C9467000C9467000C9467000C946700B4
:100030000C9467000C9467000C9467000C946700A4
:100040000C9467000C9467000C9467000C94670094
:100050000C946700001F000000001F00001F10101C
:1000600010101F00001F181818181F00001F1C1C5C
:100070001C1C1F00001F1E1E1E1E1F00001F1F1F16
:100080001F1F1F0003070F1F0F070300181C1E1F51
:100090001E1C180011241FBECFE5D4E0DEBFCDBF6B
:1000A00010E0A0E6B0E0E2ECF4E102C005900D92B1
:1000B000AC3BB107D9F710E0ACEBB0E001C01D924A
:1000C000A13EB107E1F70E9457050C945F0A0C941A
:1000D000000097B18295880F880F807C9F73892BD1
:1000E00087B987B1807E87B987B16295660F607ED8
:1000F0008F7D682B67B986B1887F482B46B9369AC1
:10010000379A089597B1907E982B97B9369A349B79
:10011000FECF349A3D9B03C085B190E0089584B131
:1001200095B10895AA9A84E08A95F1F7AA9808955E
:100130008FE084BB85B38A7F85BB85B3826F85BB27
:1001400084E08A95F1F7AA9A94E09A95F1F783B33F
:10015000AA9894E09A95F1F7AA9A94E09A95F1F703
:10016000AA9894E09A95F1F787FDEDCF15BA8FEF35
:1001700084BB0895CF93C82F0E9498008C2F807F56
:1001800085BB0E9492008C2F90E024E0880F991F7D
:100190002A95E1F785BB0E949200CF910895CF93F5
:1001A000C82F0E9498008C2F807F816085BB0E94A1
:1001B0009200C295C07FC160C5BB0E949200CF91E2
:1001C00008950E94CF0080E090E00895EF92FF92A2
:1001D0001F93CF93DF930F92CDB7DEB7182FE82E82
:1001E000F92E07C0F70181917F0169830E94CF003A
:1001F00069818E2D811B8617A8F30F90DF91CF9117
:100200001F91FF90EF90089581E00E94BA00089539
:1002100082E00E94BA000895623031F0633031F01C
:10022000613029F4805C03C08C5E01C08C5A806808
:100230000E94BA000895CF92DF92FF920F931F930E
:10024000CF93DF930F92CDB7DEB78C01660F660FA9
:10025000660F6064CC24DD24F801EC0DFD1DF490E4
:100260008C2D860F69830E94BA008F2D0E94CF00CB
:100270000894C11CD11C698188E0C816D10461F7BB
:100280000F90DF91CF911F910F91FF90DF90CF9052
:1002900008951F93CF93DF938FEF9FEAA1E08150E2
:1002A0009040A040E1F700C000008FEF84BBC0E3A6
:1002B000C5BB0E949200AFEFBBE61197F1F700C0FB
:1002C0000000C5BB0E9492008FEF95E30197F1F704
:1002D00000C00000C5BB0E949200AFEFB5E31197CC
:1002E000F1F700C0000080E285BB0E9492008FEF12
:1002F00095E30197F1F700C0000088E20E94BA0080
:100300008CE00E94BA0086E00E94BA0080E80E9459
:10031000BA00C0E0D0E060E001C0612F162F1F5F7F
:10032000CE018C5A9F4F0E941B0128961830A9F7C6
:10033000DF91CF911F9108951F93CF93DF93EC012D
:10034000862F642F0E940C0110E003C00E94CF0092
:100350001F5FFE01E10FF11D84918823B9F7DF9142
:10036000CF911F910895CF93DF93D82FC0E004C0A1
:100370008CE10E94BA00CF5FCD17D1F7DF91CF910A
:100380000895CF93DF93D82FC0E004C088E10E9486
:10039000BA00CF5FCD17D1F7DF91CF9108958EE0EE
:1003A0000E94BA0008958FE00E94BA0008958CE080
:1003B0000E94BA00089588E00E94BA0008958CE077
:1003C0000E94BA000895CF93DF93D82FC0E004C0F5
:1003D00080E10E94BA00CF5FCD17D1F7DF91CF91B6
:1003E0000895CF93DF93D82FC0E004C084E10E942A
:1003F000BA00CF5FCD17D1F7DF91CF910895DF928B
:10040000EF92FF920F931F93CF93DF93F42E482F19
:1004100050E08F2D90E09C01220F331F280F391FD1
:10042000220F331F429FC001439F900D529F900D9A
:10043000112470E00E94C5068B01CB0166E070E0DC
:100440000E94B106D82EC0E0D0E0EE2412C09E017A
:100450002B5F3F4F0217130728F40C171D0720F0DE
:100460008D2D03C085E001C080E00E94CF00E394A1
:100470002696EF1461F7DF91CF911F910F91FF90B6
:10048000EF90DF9008951EBC28B7246028BFBC0100
:1004900080E090E020E33AE240E050E00E948606EF
:1004A00028E13CEF4FEF5FEF0E94D8063DBD2CBD29
:1004B0001FBC8EB585608EBD089588B78470089581
:1004C0001EBC08950F93CF93DF93C42FD22F9C01AE
:1004D00040E050E060E07CE88AE090E00E94D806CE
:1004E0002150304030BD29B98AB188618AB980B5C0
:1004F0008068C295C07FC82BDD0FDD0FDD0FDC2BC0
:10050000000F0D2B00BDDF91CF910F9108959AB18F
:10051000282F279522272795292B962F9295990FDB
:10052000990F907C922B9AB9862B09F078940895B4
:100530005F9BFECF8CB1089580E00E9498020895E1
:100540005D9BFECF8CB9089560E00E94A00280E020
:1005500090E008951F93CF93DF93162FEC0103C013
:10056000612F0E94A00289918823D1F7DF91CF915A
:100570001F910895CF92DF92FF920F931F93CF9315
:10058000DF9300D0CDB7DEB7F82EC82ED92E0FC01E
:10059000842F4A8369830E949802F60181936F0138
:1005A0004A8169818D3019F4F801108205C08601F5
:1005B0008C2D8F19861760F30F900F90DF91CF91DC
:1005C0001F910F91FF90DF90CF90089581B3837EAC
:1005D00081BB82B38C6182BB85B78A6085BF8AB7D5
:1005E000806C8ABF8BB7806C8BBF08951F93CF93AD
:1005F000DF938FEF87BB18BA88E893E10E9443022C
:1006000083E088BBC0E015E0D3E01BC080E061E080
:100610000E940C018C2F6FEF40E10E94FF01CF5F21
:100620008C2F612F0E94A506992339F488B3880F77
:1006300088BB88B3882309F4D8BB83E39DEC01977A
:10064000F1F70E945D02882309F30E94600218BA44
:10065000DF91CF911F9108950E9449010E940401EA
:100660000E94D7010E94080183E060E00E940C0113
:100670008CE790E060E670E00E94860708950F9393
:100680001F93CF93DF93EC018B01442311F00E9461
:10069000040180E060E00E940C01CE0160E670E0A1
:1006A0000E94860780E061E00E940C01C80160E6BC
:1006B00070E00E948607DF91CF911F910F910895FE
:1006C000CF93DF93D82FC62F60E00E940C01CC237C
:1006D00019F026E830E002C028E830E0C90161E006
:1006E0000E94E6008D2F61E00E940C01CC2319F0DE
:1006F00088E890E002C086E890E061E00E94E600B1
:10070000DF91CF91089550E0FC01E40FF51F808147
:10071000803239F4640F751FFB018081803251F4FF
:100720000CC0833261F4640F751FFB01808180323D
:1007300031F407C0833219F406C080E0089583E0E5
:10074000089581E0089582E0089550E0213029F075
:100750002130B8F02230A9F409C0840F951F23E29C
:10076000FC012083460F571F80E208C0840F951FAD
:1007700020E2FC012083460F571F83E2FA018083A9
:100780000895640F751F20E2FB012083480F591F55
:10079000FA0120830895CF92DF92EF92FF920F9398
:1007A0001F93CF93DF93EC017B01042F122FE22FD5
:1007B000E150E23028F4F0E0EB54FF4FD08002C06B
:1007C00083E0D82ECE01B701402F0E948303C82EAC
:1007D000002359F4CE01B70141E00E9483038D1537
:1007E00041F1CE01B70140E020C00F3059F4CE01F5
:1007F000B7014EE00E9483038D15D9F0CE01B701F9
:100800004FE013C0402F4F5FCE01B7010E9483031A
:100810008D1579F0402F4150CE01B7010E9483031E
:100820008D1539F0CE01B701402F212F0E94A5036D
:1008300001C01C2D812FDF91CF911F910F91FF904F
:10084000EF90DF90CF900895FC0101C041939E2F5F
:10085000981B9617D8F30895CF92DF92FF920F93CB
:100860001F93CF93DF930F92CDB7DEB76C018B014F
:1008700020E0FF24C601B801422F29830E94830390
:1008800029818111F3942F5F2031A1F78F2D0F90D3
:10089000DF91CF911F910F91FF90DF90CF9008953E
:1008A000EF92FF921F93CF93DF93FC017B01EA014C
:1008B000849919C0849BFECF108181E01827108392
:1008C000112311F040E001C04FE0C701BE010E94BA
:1008D0008303282F112311F040E001C04FE0C7012E
:1008E000BE010E94A503DF91CF911F91FF90EF9071
:1008F00008954F925F926F927F928F929F92AF92E4
:10090000BF92CF92DF92EF92FF92CF931092BC00F2
:1009100081E08093B4001092BE0090E1892E912C6A
:10092000A12CB12C23E0422E512C612C712C19C02A
:100930000E9463076B017C010E946307A50194017B
:100940000E94D806C62FC701B601A30192010E94DA
:10095000D806262F80ED90E06FEB70E04C2F0E94C0
:10096000CB0380ED90E06FEB70E00E942C048530AB
:10097000F9F6C091BD00CC2311F04FE001C040E07A
:1009800080ED90E06FEB70E00E948303813081F294
:10099000CC2319F08FE090E002C080E090E080531B
:1009A0009F4F2DE4FC01208380ED90E06FEB70E021
:1009B00041E00E943F03CF91FF90EF90DF90CF90F6
:1009C000BF90AF909F908F907F906F905F904F906F
:1009D00008958499FECF849BFECF0E9479040895E8
:1009E0001F920F920FB60F9211242F933F934F93A4
:1009F0005F936F937F938F939F93AF93BF93EF9387
:100A0000FF938091B400882369F01092BE0080911A
:100A1000BD00882311F08FE001C080E06091BE002E
:100A20000E946003FF91EF91BF91AF919F918F91D1
:100A30007F916F915F914F913F912F910F900FBEDA
:100A40000F901F9018951F920F920FB60F921124BE
:100A50002F933F934F935F936F937F938F939F93C6
:100A6000AF93BF93EF93FF938091B400882371F00D
:100A700081E08093BE008091BD00882311F08FE05B
:100A800001C080E06091BE000E946003FF91EF9181
:100A9000BF91AF919F918F917F916F915F914F9196
:100AA0003F912F910F900FBE0F901F90189581E0EE
:100AB00060E047E00E94690080E00E948200BC0183
:100AC00080E090E00E94680780ED90E060E140E205
:100AD0000E9424048FEB90E060E140E20E94240435
:100AE0001092CF001092E0000E942C030E94F602A8
:100AF0000E9479040E94E602789415E038EEA32E55
:100B000033E0B32E43E0C42ED12CE12CF12CDDE4F4
:100B100050E6852E50E0952E63EA662E60E0762E34
:100B20008091BC00612F0E94A506682F70E06F5F66
:100B30007F4FC5010E94C506CB010E94430208C039
:100B40008DEB90E060ED70E04FEB50E00E945004C0
:100B50000E945D028823A1F30E9460023091BD00D3
:100B6000332311F02FE026C020E024C0422F50E0B4
:100B7000CA01332311F0019701C0019680539F4FA2
:100B8000DC018C91FA01E053FF4F8083CA013323CB
:100B900011F0019701C0019681549F4FFC018081A3
:100BA00041545F4FDA018C93332311F0215002C07E
:100BB0002F5F05C0332319F02223C1F603C02F3065
:100BC000A8F202C0C0E001C0CFE00E946307A70105
:100BD00096010E94D806262F80ED90E06FEB70E022
:100BE0004C2F0E94CB038091BE002091BD00882332
:100BF000F9F4222319F08FE090E002C080E090E049
:100C000080539F4FFC018081803231F48091BC0081
:100C10008F5F8093BC0002C01092B400222319F0B1
:100C20008FE090E002C080E090E080539F4F1EC0B4
:100C3000222319F08FE090E002C080E090E0815420
:100C40009F4FFC018081803231F48091BC008F5F26
:100C50008093BC0002C01092B400222319F08FE0F0
:100C600090E002C080E090E081549F4FDC01DC9373
:100C700080ED90E06FEB70E040E00E943F038091D8
:100C8000B4008823A1F08091BC00893109F048CFDD
:100C90001092B4000E94040180E060E00E940C0108
:100CA0008AE890E060E670E00E94860722C00E9419
:100CB000040180E060E00E940C0100D000D000D070
:100CC000EDB7FEB73196ADB7BEB712969C928E9235
:100CD0001197738262828091BC00848315820E9486
:100CE0007307EDB7FEB736960FB6F894FEBF0FBE8A
:100CF000EDBF80E061E00E940C0186E990E060E6D3
:100D000070E00E9486070E94E9040ACF629FD0012A
:100D1000739FF001829FE00DF11D649FE00DF11DB6
:100D2000929FF00D839FF00D749FF00D659FF00D65
:100D30009927729FB00DE11DF91F639FB00DE11D52
:100D4000F91FBD01CF0111240895991B79E004C05A
:100D5000991F961708F0961B881F7A95C9F78095FA
:100D60000895AA1BBB1B51E107C0AA1FBB1FA617F2
:100D7000B70710F0A61BB70B881F991F5A95A9F744
:100D800080959095BC01CD01089597FB092E07260B
:100D90000AD077FD04D0E5DF06D000201AF4709564
:100DA00061957F4F0895F6F7909581959F4F08952F
:100DB00097FB092E05260ED057FD04D014D00AD07B
:100DC000001C38F450954095309521953F4F4F4F7A
:100DD0005F4F0895F6F790958095709561957F4FD8
:100DE0008F4F9F4F0895A1E21A2EAA1BBB1BFD0136
:100DF0000DC0AA1FBB1FEE1FFF1FA217B307E407FA
:100E0000F50720F0A21BB30BE40BF50B661F771F51
:100E1000881F991F1A9469F7609570958095909531
:100E20009B01AC01BD01CF010895A0E0B0E0EBE172
:100E3000F7E00C942E0AEC0188819981AA81BB818C
:100E40000097A105B10521F484E299EDABE5B7E087
:100E5000BC01CD012DE133EF41E050E00E94D80606
:100E600049015A0127EA31E440E050E00E94860639
:100E70006B017C01C501B4012CEE34EF4FEF5FEF45
:100E80000E948606DC01CB01C80ED91EEA1EFB1E9D
:100E9000F7FE08C08FEF9FEFAFEFBFE7C80ED91E78
:100EA000EA1EFB1EC882D982EA82FB829701860174
:100EB0003F77B801C901CDB7DEB7ECE00C944A0A20
:100EC0000E941507089587EB90E00E94150708958A
:100ED000DC01CB018093B7009093B800A093B900D8
:100EE000B093BA000895A0E0B0E0E9E7F7E00C9411
:100EF000380AAE01475F5F4F8D819E816F81788593
:100F00000E94AA072096E2E00C94540AEF92FF9206
:100F10000F931F93CF93DF937C01EB018B8181FFB4
:100F200011C000E010E008C0E885F985BE01099510
:100F3000009711F00FEF1FEFF70181917F018823D8
:100F400099F702C00FEF1FEFC801CDB7DEB7E6E09B
:100F50000C94500AADE0B0E0E0EBF7E00C94280A06
:100F60003C017D876C875A01FC01178216828381C0
:100F700081FFC8C12E010894411C511CF3019381CB
:100F8000EC85FD8593FD859193FF8191FD87EC872D
:100F9000882309F4B3C1853241F493FD859193FF11
:100FA0008191FD87EC87853229F490E0B3010E949E
:100FB0009E09E4CFFF24EE2410E01032B0F48B320F
:100FC00069F08C3228F4803251F0833271F40BC016
:100FD0008D3239F0803349F411602CC012601460F6
:100FE00029C0186027C0106125C017FD2EC0282F0A
:100FF00020532A3098F416FF08C08F2D880FF82E42
:10100000FF0CFF0CF80EF20E15C08E2D880FE82E87
:10101000EE0CEE0CE80EE20E10620CC08E3221F4E3
:1010200016FD6CC1106406C08C3611F4106802C045
:10103000883659F4EC85FD8593FD859193FF819168
:10104000FD87EC87882309F0B8CF982F955493300B
:1010500018F09052933038F424E030E0A20EB31E22
:101060003FE339830FC0833631F0833781F0833516
:1010700009F05AC022C0F5018081898322E030E066
:10108000A20EB31E21E0C22ED12C420114C092E068
:10109000292E312C2A0C3B1CF5018080918016FFF3
:1010A00003C06F2D70E002C06FEF7FEFC4010E949C
:1010B00093096C0151011F7715C082E0282E312C55
:1010C0002A0C3B1CF5018080918016FF03C06F2D18
:1010D00070E002C06FEF7FEFC4010E9488096C01CD
:1010E0001068510113FD1CC006C080E290E0B301FE
:1010F0000E949E09EA948E2D90E0C816D906A8F3A6
:101100000FC0F40117FD859117FF81914F0190E009
:10111000B3010E949E09E110EA940894C108D10825
:10112000C114D10471F7E7C0843611F0893651F546
:10113000F50117FF07C080819181A281B38124E06E
:1011400030E008C080819181AA2797FDA095BA2F31
:1011500022E030E0A20EB31E012F0F76B7FF08C0C9
:10116000B095A095909581959F4FAF4FBF4F006868
:10117000BC01CD01A2012AE030E00E94CA09D82EAC
:10118000D4183FC0853721F41F7E2AE030E020C00C
:10119000197F8F36A9F0803720F4883509F0AEC06A
:1011A0000BC0803721F0883709F0A8C001C010615A
:1011B00014FF09C0146007C014FF08C0166006C001
:1011C00028E030E005C020E130E002C020E132E05C
:1011D000F50117FF07C0608171818281938144E02E
:1011E00050E006C06081718180E090E042E050E014
:1011F000A40EB51EA2010E94CA09D82ED418012F30
:101200000F7706FF09C00E7FDF1430F404FF06C01D
:1012100002FD04C00F7E02C01D2D01C01F2D802FB6
:1012200090E004FF0CC0FE01ED0DF11D2081203384
:1012300011F4097E09C002FF06C01E5F05C0867852
:101240009070009709F01F5F802E992403FD12C053
:1012500000FF0DC0FD2C1E1550F4FE0CF11A1E2DC2
:1012600006C080E290E0B3010E949E091F5F1E1538
:10127000C0F304C01E1510F4E11A01C0EE2484FE70
:101280000FC080E390E0B3010E949E0982FE1FC060
:1012900081FE03C088E590E010C088E790E00DC0B3
:1012A000C40186789070009791F081FC02C080E2C2
:1012B00001C08BE207FD8DE290E0B3010E949E0920
:1012C00006C080E390E0B3010E949E09FA94DF1407
:1012D000C0F3DA94F201ED0DF11D808190E0B301CD
:1012E0000E949E09DD20A9F706C080E290E0B301CC
:1012F0000E949E09EA94EE20C1F740CEF301868158
:10130000978102C08FEF9FEF2D96E2E10C94440A83
:10131000FC010590615070400110D8F780959095C0
:101320008E0F9F1F0895FC016150704001900110C5
:10133000D8F7809590958E0F9F1F08950F931F9358
:10134000CF93DF938C01EB018B8181FF1BC082FF68
:101350000DC02E813F818C819D812817390764F44F
:10136000E881F9810193F983E88306C0E885F9856E
:10137000802F0995009731F48E819F8101969F837C
:101380008E8302C00FEF1FEFC801DF91CF911F9135
:101390000F910895FA01AA27283051F1203181F1E7
:1013A000E8946F936E7F6E5F7F4F8F4F9F4FAF4F6D
:1013B000B1E03ED0B4E03CD0670F781F891F9A1F80
:1013C000A11D680F791F8A1F911DA11D6A0F711D34
:1013D000811D911DA11D20D009F468943F912AE040
:1013E000269F11243019305D3193DEF6CF01089528
:1013F000462F4770405D4193B3E00FD0C9F7F6CF59
:10140000462F4F70405D4A3318F0495D31FD405220
:10141000419302D0A9F7EACFB4E0A69597958795B6
:1014200077956795BA95C9F7009761057105089595
:101430009B01AC010A2E0694579547953795279541
:10144000BA95C9F7620F731F841F951FA01D0895D9
:101450002F923F924F925F926F927F928F929F92C4
:10146000AF92BF92CF92DF92EF92FF920F931F93B2
:10147000CF93DF93CDB7DEB7CA1BDB0B0FB6F89463
:10148000DEBF0FBECDBF09942A88398848885F84A3
:101490006E847D848C849B84AA84B984C884DF8014
:1014A000EE80FD800C811B81AA81B981CE0FD11DF8
:1014B0000FB6F894DEBF0FBECDBFED010895F894CE
:0214C000FFCF5C
:1014C2000000000200000000E10000000000000037
:1014D200000300000000A4029C02000041565220BA
:1014E2004D4152494F0020004D00594F5520574958
:1014F2004E205E5F5E005052455353205343524F7D
:101502004C4C00594F55204C4F4F534520545F547B
:0C1512002025640001020101000000001F
:00000001FF
